{
  "_format": "hh-sol-artifact-1",
  "contractName": "Dwitter",
  "sourceName": "contracts/Dwitter.sol",
  "abi": [
    {
      "inputs": [],
      "stateMutability": "nonpayable",
      "type": "constructor"
    },
    {
      "anonymous": false,
      "inputs": [
        {
          "indexed": false,
          "internalType": "address",
          "name": "author",
          "type": "address"
        },
        {
          "indexed": false,
          "internalType": "uint256",
          "name": "userid",
          "type": "uint256"
        },
        {
          "indexed": false,
          "internalType": "uint256",
          "name": "dweetid",
          "type": "uint256"
        },
        {
          "indexed": false,
          "internalType": "string",
          "name": "hashtag",
          "type": "string"
        }
      ],
      "name": "logDweetCreated",
      "type": "event"
    },
    {
      "anonymous": false,
      "inputs": [
        {
          "indexed": false,
          "internalType": "uint256",
          "name": "id",
          "type": "uint256"
        },
        {
          "indexed": false,
          "internalType": "string",
          "name": "hashtag",
          "type": "string"
        }
      ],
      "name": "logDweetDeleted",
      "type": "event"
    },
    {
      "anonymous": false,
      "inputs": [
        {
          "indexed": false,
          "internalType": "address",
          "name": "user",
          "type": "address"
        },
        {
          "indexed": false,
          "internalType": "uint256",
          "name": "id",
          "type": "uint256"
        }
      ],
      "name": "logRegisterUser",
      "type": "event"
    },
    {
      "anonymous": false,
      "inputs": [
        {
          "indexed": false,
          "internalType": "address",
          "name": "user",
          "type": "address"
        },
        {
          "indexed": false,
          "internalType": "uint256",
          "name": "id",
          "type": "uint256"
        }
      ],
      "name": "logUserBanned",
      "type": "event"
    },
    {
      "stateMutability": "nonpayable",
      "type": "fallback"
    },
    {
      "inputs": [
        {
          "internalType": "address",
          "name": "_user",
          "type": "address"
        }
      ],
      "name": "addMaintainer",
      "outputs": [],
      "stateMutability": "nonpayable",
      "type": "function"
    },
    {
      "inputs": [
        {
          "internalType": "address payable",
          "name": "_newOwner",
          "type": "address"
        }
      ],
      "name": "changeOwner",
      "outputs": [],
      "stateMutability": "nonpayable",
      "type": "function"
    },
    {
      "inputs": [
        {
          "internalType": "string",
          "name": "_username",
          "type": "string"
        }
      ],
      "name": "changeUsername",
      "outputs": [],
      "stateMutability": "nonpayable",
      "type": "function"
    },
    {
      "inputs": [
        {
          "internalType": "uint256",
          "name": "_dweetid",
          "type": "uint256"
        },
        {
          "internalType": "string",
          "name": "_comment",
          "type": "string"
        }
      ],
      "name": "createComment",
      "outputs": [],
      "stateMutability": "nonpayable",
      "type": "function"
    },
    {
      "inputs": [
        {
          "internalType": "string",
          "name": "_hashtag",
          "type": "string"
        },
        {
          "internalType": "string",
          "name": "_content",
          "type": "string"
        },
        {
          "internalType": "string",
          "name": "_imghash",
          "type": "string"
        }
      ],
      "name": "createDweet",
      "outputs": [],
      "stateMutability": "nonpayable",
      "type": "function"
    },
    {
      "inputs": [
        {
          "internalType": "uint256",
          "name": "_id",
          "type": "uint256"
        }
      ],
      "name": "deleteComment",
      "outputs": [],
      "stateMutability": "nonpayable",
      "type": "function"
    },
    {
      "inputs": [
        {
          "internalType": "uint256",
          "name": "_id",
          "type": "uint256"
        }
      ],
      "name": "deleteDweet",
      "outputs": [],
      "stateMutability": "nonpayable",
      "type": "function"
    },
    {
      "inputs": [
        {
          "internalType": "uint256",
          "name": "_commentid",
          "type": "uint256"
        },
        {
          "internalType": "string",
          "name": "_comment",
          "type": "string"
        }
      ],
      "name": "editComment",
      "outputs": [],
      "stateMutability": "nonpayable",
      "type": "function"
    },
    {
      "inputs": [
        {
          "internalType": "uint256",
          "name": "_id",
          "type": "uint256"
        },
        {
          "internalType": "string",
          "name": "_hashtag",
          "type": "string"
        },
        {
          "internalType": "string",
          "name": "_content",
          "type": "string"
        },
        {
          "internalType": "string",
          "name": "_imghash",
          "type": "string"
        }
      ],
      "name": "editDweet",
      "outputs": [],
      "stateMutability": "nonpayable",
      "type": "function"
    },
    {
      "inputs": [],
      "name": "getBalance",
      "outputs": [
        {
          "internalType": "uint256",
          "name": "balance",
          "type": "uint256"
        }
      ],
      "stateMutability": "view",
      "type": "function"
    },
    {
      "inputs": [
        {
          "internalType": "uint256",
          "name": "_id",
          "type": "uint256"
        }
      ],
      "name": "getComment",
      "outputs": [
        {
          "internalType": "address",
          "name": "author",
          "type": "address"
        },
        {
          "internalType": "uint256",
          "name": "dweetId",
          "type": "uint256"
        },
        {
          "internalType": "string",
          "name": "content",
          "type": "string"
        },
        {
          "internalType": "uint256",
          "name": "likeCount",
          "type": "uint256"
        },
        {
          "internalType": "uint256",
          "name": "timestamp",
          "type": "uint256"
        },
        {
          "internalType": "enum Dwitter.cdStatus",
          "name": "status",
          "type": "uint8"
        }
      ],
      "stateMutability": "view",
      "type": "function"
    },
    {
      "inputs": [
        {
          "internalType": "uint256",
          "name": "_id",
          "type": "uint256"
        }
      ],
      "name": "getDweet",
      "outputs": [
        {
          "internalType": "address",
          "name": "author",
          "type": "address"
        },
        {
          "internalType": "string",
          "name": "hashtag",
          "type": "string"
        },
        {
          "internalType": "string",
          "name": "content",
          "type": "string"
        },
        {
          "internalType": "string",
          "name": "imgHash",
          "type": "string"
        },
        {
          "internalType": "uint256",
          "name": "timestamp",
          "type": "uint256"
        },
        {
          "internalType": "uint256",
          "name": "likeCount",
          "type": "uint256"
        }
      ],
      "stateMutability": "view",
      "type": "function"
    },
    {
      "inputs": [
        {
          "internalType": "uint256",
          "name": "_id",
          "type": "uint256"
        }
      ],
      "name": "getDweetComments",
      "outputs": [
        {
          "internalType": "uint256[]",
          "name": "list",
          "type": "uint256[]"
        }
      ],
      "stateMutability": "view",
      "type": "function"
    },
    {
      "inputs": [
        {
          "internalType": "address",
          "name": "_user",
          "type": "address"
        }
      ],
      "name": "getUser",
      "outputs": [
        {
          "internalType": "uint256",
          "name": "id",
          "type": "uint256"
        },
        {
          "internalType": "string",
          "name": "username",
          "type": "string"
        },
        {
          "internalType": "string",
          "name": "name",
          "type": "string"
        },
        {
          "internalType": "string",
          "name": "imghash",
          "type": "string"
        },
        {
          "internalType": "string",
          "name": "coverhash",
          "type": "string"
        },
        {
          "internalType": "string",
          "name": "bio",
          "type": "string"
        }
      ],
      "stateMutability": "view",
      "type": "function"
    },
    {
      "inputs": [],
      "name": "getUser",
      "outputs": [
        {
          "internalType": "uint256",
          "name": "id",
          "type": "uint256"
        },
        {
          "internalType": "string",
          "name": "username",
          "type": "string"
        },
        {
          "internalType": "string",
          "name": "name",
          "type": "string"
        },
        {
          "internalType": "string",
          "name": "imghash",
          "type": "string"
        },
        {
          "internalType": "string",
          "name": "coverhash",
          "type": "string"
        },
        {
          "internalType": "string",
          "name": "bio",
          "type": "string"
        }
      ],
      "stateMutability": "view",
      "type": "function"
    },
    {
      "inputs": [
        {
          "internalType": "address",
          "name": "_user",
          "type": "address"
        }
      ],
      "name": "getUserComments",
      "outputs": [
        {
          "internalType": "uint256[]",
          "name": "commentList",
          "type": "uint256[]"
        }
      ],
      "stateMutability": "view",
      "type": "function"
    },
    {
      "inputs": [],
      "name": "getUserComments",
      "outputs": [
        {
          "internalType": "uint256[]",
          "name": "commentList",
          "type": "uint256[]"
        }
      ],
      "stateMutability": "view",
      "type": "function"
    },
    {
      "inputs": [
        {
          "internalType": "address",
          "name": "_user",
          "type": "address"
        }
      ],
      "name": "getUserDweets",
      "outputs": [
        {
          "internalType": "uint256[]",
          "name": "dweetList",
          "type": "uint256[]"
        }
      ],
      "stateMutability": "view",
      "type": "function"
    },
    {
      "inputs": [],
      "name": "getUserDweets",
      "outputs": [
        {
          "internalType": "uint256[]",
          "name": "dweetList",
          "type": "uint256[]"
        }
      ],
      "stateMutability": "view",
      "type": "function"
    },
    {
      "inputs": [
        {
          "internalType": "address",
          "name": "",
          "type": "address"
        }
      ],
      "name": "isMaintainer",
      "outputs": [
        {
          "internalType": "bool",
          "name": "",
          "type": "bool"
        }
      ],
      "stateMutability": "view",
      "type": "function"
    },
    {
      "inputs": [
        {
          "internalType": "uint256",
          "name": "_id",
          "type": "uint256"
        }
      ],
      "name": "likeDweet",
      "outputs": [],
      "stateMutability": "nonpayable",
      "type": "function"
    },
    {
      "inputs": [],
      "name": "owner",
      "outputs": [
        {
          "internalType": "address payable",
          "name": "",
          "type": "address"
        }
      ],
      "stateMutability": "view",
      "type": "function"
    },
    {
      "inputs": [
        {
          "internalType": "string",
          "name": "_username",
          "type": "string"
        },
        {
          "internalType": "string",
          "name": "_name",
          "type": "string"
        },
        {
          "internalType": "string",
          "name": "_imgHash",
          "type": "string"
        },
        {
          "internalType": "string",
          "name": "_coverHash",
          "type": "string"
        },
        {
          "internalType": "string",
          "name": "_bio",
          "type": "string"
        }
      ],
      "name": "registerUser",
      "outputs": [],
      "stateMutability": "nonpayable",
      "type": "function"
    },
    {
      "inputs": [],
      "name": "reportingRewardPrice",
      "outputs": [
        {
          "internalType": "uint256",
          "name": "",
          "type": "uint256"
        }
      ],
      "stateMutability": "view",
      "type": "function"
    },
    {
      "inputs": [],
      "name": "reportingstakePrice",
      "outputs": [
        {
          "internalType": "uint256",
          "name": "",
          "type": "uint256"
        }
      ],
      "stateMutability": "view",
      "type": "function"
    },
    {
      "inputs": [],
      "name": "startDapp",
      "outputs": [],
      "stateMutability": "nonpayable",
      "type": "function"
    },
    {
      "inputs": [],
      "name": "stopDapp",
      "outputs": [],
      "stateMutability": "nonpayable",
      "type": "function"
    },
    {
      "inputs": [],
      "name": "stopped",
      "outputs": [
        {
          "internalType": "bool",
          "name": "",
          "type": "bool"
        }
      ],
      "stateMutability": "view",
      "type": "function"
    },
    {
      "inputs": [],
      "name": "totalComments",
      "outputs": [
        {
          "internalType": "uint256",
          "name": "",
          "type": "uint256"
        }
      ],
      "stateMutability": "view",
      "type": "function"
    },
    {
      "inputs": [],
      "name": "totalDweets",
      "outputs": [
        {
          "internalType": "uint256",
          "name": "",
          "type": "uint256"
        }
      ],
      "stateMutability": "view",
      "type": "function"
    },
    {
      "inputs": [],
      "name": "totalMaintainers",
      "outputs": [
        {
          "internalType": "uint256",
          "name": "",
          "type": "uint256"
        }
      ],
      "stateMutability": "view",
      "type": "function"
    },
    {
      "inputs": [],
      "name": "totalUsers",
      "outputs": [
        {
          "internalType": "uint256",
          "name": "",
          "type": "uint256"
        }
      ],
      "stateMutability": "view",
      "type": "function"
    },
    {
      "inputs": [
        {
          "internalType": "uint256",
          "name": "_amount",
          "type": "uint256"
        }
      ],
      "name": "transferContractBalance",
      "outputs": [],
      "stateMutability": "nonpayable",
      "type": "function"
    },
    {
      "inputs": [
        {
          "internalType": "address",
          "name": "",
          "type": "address"
        },
        {
          "internalType": "uint256",
          "name": "",
          "type": "uint256"
        }
      ],
      "name": "userReportList",
      "outputs": [
        {
          "internalType": "uint256",
          "name": "",
          "type": "uint256"
        }
      ],
      "stateMutability": "view",
      "type": "function"
    },
    {
      "inputs": [],
      "name": "userStatus",
      "outputs": [
        {
          "internalType": "enum Dwitter.accountStatus",
          "name": "status",
          "type": "uint8"
        }
      ],
      "stateMutability": "view",
      "type": "function"
    },
    {
      "inputs": [
        {
          "internalType": "string",
          "name": "_username",
          "type": "string"
        }
      ],
      "name": "usernameAvailable",
      "outputs": [
        {
          "internalType": "bool",
          "name": "status",
          "type": "bool"
        }
      ],
      "stateMutability": "view",
      "type": "function"
    }
  ],
  "bytecode": "0x608060405260008060146101000a81548160ff0219169083151502179055506000600155600060025560006003556000600d556001600f556606e132f19a2944601055660dc265e33452886011553480156200005a57600080fd5b50336000806101000a81548173ffffffffffffffffffffffffffffffffffffffff021916908373ffffffffffffffffffffffffffffffffffffffff1602179055506200016d6040518060400160405280600581526020017f6f776e65720000000000000000000000000000000000000000000000000000008152506040518060400160405280600581526020017f6f776e657200000000000000000000000000000000000000000000000000000081525060405180602001604052806000815250604051806020016040528060008152506040518060400160405280600581526020017f6f776e65720000000000000000000000000000000000000000000000000000008152506200017360201b60201c565b62000ce0565b600060149054906101000a900460ff1615620001c6576040517f08c379a0000000000000000000000000000000000000000000000000000000008152600401620001bd9062000664565b60405180910390fd5b3360006003811115620001de57620001dd62000686565b5b600460008373ffffffffffffffffffffffffffffffffffffffff1673ffffffffffffffffffffffffffffffffffffffff16815260200190815260200160002060070160009054906101000a900460ff16600381111562000243576200024262000686565b5b1462000286576040517f08c379a00000000000000000000000000000000000000000000000000000000081526004016200027d9062000705565b60405180910390fd5b85600681604051620002999190620007a0565b908152602001604051809103902060009054906101000a900460ff1615620002f8576040517f08c379a0000000000000000000000000000000000000000000000000000000008152600401620002ef9062000809565b60405180910390fd5b60016006886040516200030c9190620007a0565b908152602001604051809103902060006101000a81548160ff021916908315150217905550620003496001600354620005a060201b90919060201c565b600381905550600060035490506040518061010001604052808281526020013373ffffffffffffffffffffffffffffffffffffffff16815260200189815260200188815260200187815260200186815260200185815260200160016003811115620003b957620003b862000686565b5b815250600460003373ffffffffffffffffffffffffffffffffffffffff1673ffffffffffffffffffffffffffffffffffffffff1681526020019081526020016000206000820151816000015560208201518160010160006101000a81548173ffffffffffffffffffffffffffffffffffffffff021916908373ffffffffffffffffffffffffffffffffffffffff160217905550604082015181600201908162000463919062000a9a565b5060608201518160030190816200047b919062000a9a565b50608082015181600401908162000493919062000a9a565b5060a0820151816005019081620004ab919062000a9a565b5060c0820151816006019081620004c3919062000a9a565b5060e08201518160070160006101000a81548160ff02191690836003811115620004f257620004f162000686565b5b0217905550905050336005896040516200050d9190620007a0565b908152602001604051809103902060006101000a81548173ffffffffffffffffffffffffffffffffffffffff021916908373ffffffffffffffffffffffffffffffffffffffff1602179055507fabc58c36475157c4ac7669f9adfbb6f254d3a3578fb89676f6866ac3b9950eed336003546040516200058e92919062000bd7565b60405180910390a15050505050505050565b6000808284620005b1919062000c33565b905083811015620005f9576040517f08c379a0000000000000000000000000000000000000000000000000000000008152600401620005f09062000cbe565b60405180910390fd5b8091505092915050565b600082825260208201905092915050565b7f4461707020686173206265656e2073746f707065642100000000000000000000600082015250565b60006200064c60168362000603565b9150620006598262000614565b602082019050919050565b600060208201905081810360008301526200067f816200063d565b9050919050565b7f4e487b7100000000000000000000000000000000000000000000000000000000600052602160045260246000fd5b7f5573657220616c72656164792072656769737465726564000000000000000000600082015250565b6000620006ed60178362000603565b9150620006fa82620006b5565b602082019050919050565b600060208201905081810360008301526200072081620006de565b9050919050565b600081519050919050565b600081905092915050565b60005b838110156200075d57808201518184015260208101905062000740565b60008484015250505050565b6000620007768262000727565b62000782818562000732565b9350620007948185602086016200073d565b80840191505092915050565b6000620007ae828462000769565b915081905092915050565b7f557365726e616d6520616c72656164792074616b656e00000000000000000000600082015250565b6000620007f160168362000603565b9150620007fe82620007b9565b602082019050919050565b600060208201905081810360008301526200082481620007e2565b9050919050565b7f4e487b7100000000000000000000000000000000000000000000000000000000600052604160045260246000fd5b7f4e487b7100000000000000000000000000000000000000000000000000000000600052602260045260246000fd5b60006002820490506001821680620008a257607f821691505b602082108103620008b857620008b76200085a565b5b50919050565b60008190508160005260206000209050919050565b60006020601f8301049050919050565b600082821b905092915050565b600060088302620009227fffffffffffffffffffffffffffffffffffffffffffffffffffffffffffffffff82620008e3565b6200092e8683620008e3565b95508019841693508086168417925050509392505050565b6000819050919050565b6000819050919050565b60006200097b620009756200096f8462000946565b62000950565b62000946565b9050919050565b6000819050919050565b62000997836200095a565b620009af620009a68262000982565b848454620008f0565b825550505050565b600090565b620009c6620009b7565b620009d38184846200098c565b505050565b5b81811015620009fb57620009ef600082620009bc565b600181019050620009d9565b5050565b601f82111562000a4a5762000a1481620008be565b62000a1f84620008d3565b8101602085101562000a2f578190505b62000a4762000a3e85620008d3565b830182620009d8565b50505b505050565b600082821c905092915050565b600062000a6f6000198460080262000a4f565b1980831691505092915050565b600062000a8a838362000a5c565b9150826002028217905092915050565b62000aa58262000727565b67ffffffffffffffff81111562000ac15762000ac06200082b565b5b62000acd825462000889565b62000ada828285620009ff565b600060209050601f83116001811462000b12576000841562000afd578287015190505b62000b09858262000a7c565b86555062000b79565b601f19841662000b2286620008be565b60005b8281101562000b4c5784890151825560018201915060208501945060208101905062000b25565b8683101562000b6c578489015162000b68601f89168262000a5c565b8355505b6001600288020188555050505b505050505050565b600073ffffffffffffffffffffffffffffffffffffffff82169050919050565b600062000bae8262000b81565b9050919050565b62000bc08162000ba1565b82525050565b62000bd18162000946565b82525050565b600060408201905062000bee600083018562000bb5565b62000bfd602083018462000bc6565b9392505050565b7f4e487b7100000000000000000000000000000000000000000000000000000000600052601160045260246000fd5b600062000c408262000946565b915062000c4d8362000946565b925082820190508082111562000c685762000c6762000c04565b5b92915050565b7f536166654d6174683a206164646974696f6e206f766572666c6f770000000000600082015250565b600062000ca6601b8362000603565b915062000cb38262000c6e565b602082019050919050565b6000602082019050818103600083015262000cd98162000c97565b9050919050565b6154b38062000cf06000396000f3fe608060405234801561001057600080fd5b50600436106102205760003560e01c8063832880e711610125578063bff1f9e1116100ad578063f717793b1161007c578063f717793b14610642578063f8264f811461065e578063f98be5811461067c578063fc3e562e14610698578063fc9c6a15146106b657610221565b8063bff1f9e1146105a8578063d354f392146105c6578063db80552d146105f6578063dd57366a1461061257610221565b8063a6f9dae1116100f4578063a6f9dae11461051a578063ac9f0a4014610536578063ad81602914610552578063b9f069081461056e578063beee20dc1461058c57610221565b8063832880e7146104b15780638da5cb5b146104d4578063939327a1146104f257806395d2cc921461051057610221565b806361936b81116101a857806374ebaadc1161017757806374ebaadc1461040d57806375f12b211461043d57806377c846af1461045b5780637d0b102614610477578063830426ee1461049357610221565b806361936b81146103805780636b453c1f1461039e5780636f77926b146103ba578063719b741d146103ef57610221565b80632b3c6e22116101ef5780632b3c6e22146102de57806333aa01e91461030e57806337d33ac91461031857806340a179851461034857806350931c811461036457610221565b80630800e3001461022657806312065fe01461025b5780631d83417a146102795780631e54248e146102ae57610221565b5b600080fd5b610240600480360381019061023b9190614028565b6106d4565b604051610252969594939291906141ac565b60405180910390f35b610263610979565b6040516102709190614214565b60405180910390f35b610293600480360381019061028e9190614028565b610a10565b6040516102a59695949392919061422f565b60405180910390f35b6102c860048036038101906102c391906142d1565b610dbe565b6040516102d59190614214565b60405180910390f35b6102f860048036038101906102f39190614311565b610def565b60405161030591906143fc565b60405180910390f35b610316610f3e565b005b610332600480360381019061032d9190614311565b611039565b60405161033f91906143fc565b60405180910390f35b610362600480360381019061035d9190614553565b611188565b005b61037e60048036038101906103799190614028565b611510565b005b61038861176c565b6040516103959190614214565b60405180910390f35b6103b860048036038101906103b39190614311565b611772565b005b6103d460048036038101906103cf9190614311565b6118bd565b6040516103e6969594939291906145af565b60405180910390f35b6103f7611d25565b60405161040491906143fc565b60405180910390f35b61042760048036038101906104229190614633565b611e72565b6040516104349190614697565b60405180910390f35b610445611ea8565b6040516104529190614697565b60405180910390f35b61047560048036038101906104709190614633565b611ebb565b005b610491600480360381019061048c9190614028565b612084565b005b61049b612381565b6040516104a89190614214565b60405180910390f35b6104b9612387565b6040516104cb969594939291906145af565b60405180910390f35b6104dc6127ee565b6040516104e991906146d3565b60405180910390f35b6104fa612812565b6040516105079190614736565b60405180910390f35b610518612869565b005b610534600480360381019061052f919061477d565b612962565b005b610550600480360381019061054b91906147aa565b612a33565b005b61056c60048036038101906105679190614553565b612e37565b005b610576613099565b6040516105839190614214565b60405180910390f35b6105a660048036038101906105a19190614028565b61309f565b005b6105b06131ba565b6040516105bd9190614214565b60405180910390f35b6105e060048036038101906105db9190614028565b6131c0565b6040516105ed91906143fc565b60405180910390f35b610610600480360381019061060b91906148b1565b61336f565b005b61062c60048036038101906106279190614311565b61361b565b6040516106399190614697565b60405180910390f35b61065c6004803603810190610657919061496c565b61363b565b005b6106666139b7565b6040516106739190614214565b60405180910390f35b61069660048036038101906106919190614028565b6139bd565b005b6106a0613daf565b6040516106ad91906143fc565b60405180910390f35b6106be613efc565b6040516106cb9190614214565b60405180910390f35b6000806060600080600033600160038111156106f3576106f2614135565b5b600460008373ffffffffffffffffffffffffffffffffffffffff1673ffffffffffffffffffffffffffffffffffffffff16815260200190815260200160002060070160009054906101000a900460ff16600381111561075557610754614135565b5b14610795576040517f08c379a000000000000000000000000000000000000000000000000000000000815260040161078c90614a5f565b60405180910390fd5b87600160038111156107aa576107a9614135565b5b600a600083815260200190815260200160002060060160009054906101000a900460ff1660038111156107e0576107df614135565b5b14610820576040517f08c379a000000000000000000000000000000000000000000000000000000000815260040161081790614acb565b60405180910390fd5b600a60008a815260200190815260200160002060010160009054906101000a900473ffffffffffffffffffffffffffffffffffffffff16600a60008b815260200190815260200160002060020154600a60008c8152602001908152602001600020600301600a60008d815260200190815260200160002060040154600a60008e815260200190815260200160002060050154600a60008f815260200190815260200160002060060160009054906101000a900460ff168380546108e290614b1a565b80601f016020809104026020016040519081016040528092919081815260200182805461090e90614b1a565b801561095b5780601f106109305761010080835404028352916020019161095b565b820191906000526020600020905b81548152906001019060200180831161093e57829003601f168201915b50505050509350975097509750975097509750505091939550919395565b60008060009054906101000a900473ffffffffffffffffffffffffffffffffffffffff1673ffffffffffffffffffffffffffffffffffffffff163373ffffffffffffffffffffffffffffffffffffffff1614610a0a576040517f08c379a0000000000000000000000000000000000000000000000000000000008152600401610a0190614b97565b60405180910390fd5b47905090565b600060608060606000803360016003811115610a2f57610a2e614135565b5b600460008373ffffffffffffffffffffffffffffffffffffffff1673ffffffffffffffffffffffffffffffffffffffff16815260200190815260200160002060070160009054906101000a900460ff166003811115610a9157610a90614135565b5b14610ad1576040517f08c379a0000000000000000000000000000000000000000000000000000000008152600401610ac890614a5f565b60405180910390fd5b8760016003811115610ae657610ae5614135565b5b6007600083815260200190815260200160002060080160009054906101000a900460ff166003811115610b1c57610b1b614135565b5b14610b5c576040517f08c379a0000000000000000000000000000000000000000000000000000000008152600401610b5390614c03565b60405180910390fd5b600760008a815260200190815260200160002060010160009054906101000a900473ffffffffffffffffffffffffffffffffffffffff16600760008b8152602001908152602001600020600201600760008c8152602001908152602001600020600301600760008d8152602001908152602001600020600401600760008e815260200190815260200160002060050154600760008f815260200190815260200160002060060154848054610c0f90614b1a565b80601f0160208091040260200160405190810160405280929190818152602001828054610c3b90614b1a565b8015610c885780601f10610c5d57610100808354040283529160200191610c88565b820191906000526020600020905b815481529060010190602001808311610c6b57829003601f168201915b50505050509450838054610c9b90614b1a565b80601f0160208091040260200160405190810160405280929190818152602001828054610cc790614b1a565b8015610d145780601f10610ce957610100808354040283529160200191610d14565b820191906000526020600020905b815481529060010190602001808311610cf757829003601f168201915b50505050509350828054610d2790614b1a565b80601f0160208091040260200160405190810160405280929190818152602001828054610d5390614b1a565b8015610da05780601f10610d7557610100808354040283529160200191610da0565b820191906000526020600020905b815481529060010190602001808311610d8357829003601f168201915b50505050509250975097509750975097509750505091939550919395565b60166020528160005260406000208181548110610dda57600080fd5b90600052602060002001600091509150505481565b60603360016003811115610e0657610e05614135565b5b600460008373ffffffffffffffffffffffffffffffffffffffff1673ffffffffffffffffffffffffffffffffffffffff16815260200190815260200160002060070160009054906101000a900460ff166003811115610e6857610e67614135565b5b14610ea8576040517f08c379a0000000000000000000000000000000000000000000000000000000008152600401610e9f90614a5f565b60405180910390fd5b600b60008473ffffffffffffffffffffffffffffffffffffffff1673ffffffffffffffffffffffffffffffffffffffff168152602001908152602001600020805480602002602001604051908101604052809291908181526020018280548015610f3157602002820191906000526020600020905b815481526020019060010190808311610f1d575b5050505050915050919050565b60008054906101000a900473ffffffffffffffffffffffffffffffffffffffff1673ffffffffffffffffffffffffffffffffffffffff163373ffffffffffffffffffffffffffffffffffffffff1614610fcc576040517f08c379a0000000000000000000000000000000000000000000000000000000008152600401610fc390614b97565b60405180910390fd5b600060149054906101000a900460ff161561101c576040517f08c379a000000000000000000000000000000000000000000000000000000000815260040161101390614c6f565b60405180910390fd5b6001600060146101000a81548160ff021916908315150217905550565b606033600160038111156110505761104f614135565b5b600460008373ffffffffffffffffffffffffffffffffffffffff1673ffffffffffffffffffffffffffffffffffffffff16815260200190815260200160002060070160009054906101000a900460ff1660038111156110b2576110b1614135565b5b146110f2576040517f08c379a00000000000000000000000000000000000000000000000000000000081526004016110e990614a5f565b60405180910390fd5b600860008473ffffffffffffffffffffffffffffffffffffffff1673ffffffffffffffffffffffffffffffffffffffff16815260200190815260200160002080548060200260200160405190810160405280929190818152602001828054801561117b57602002820191906000526020600020905b815481526020019060010190808311611167575b5050505050915050919050565b600060149054906101000a900460ff16156111d8576040517f08c379a00000000000000000000000000000000000000000000000000000000081526004016111cf90614cdb565b60405180910390fd5b33600160038111156111ed576111ec614135565b5b600460008373ffffffffffffffffffffffffffffffffffffffff1673ffffffffffffffffffffffffffffffffffffffff16815260200190815260200160002060070160009054906101000a900460ff16600381111561124f5761124e614135565b5b1461128f576040517f08c379a000000000000000000000000000000000000000000000000000000000815260040161128690614a5f565b60405180910390fd5b82600160038111156112a4576112a3614135565b5b6007600083815260200190815260200160002060080160009054906101000a900460ff1660038111156112da576112d9614135565b5b1461131a576040517f08c379a000000000000000000000000000000000000000000000000000000000815260040161131190614c03565b60405180910390fd5b6113306001600254613f0290919063ffffffff16565b600281905550600060025490506040518060e001604052808281526020013373ffffffffffffffffffffffffffffffffffffffff168152602001868152602001858152602001600081526020014281526020016001600381111561139757611396614135565b5b815250600a60008381526020019081526020016000206000820151816000015560208201518160010160006101000a81548173ffffffffffffffffffffffffffffffffffffffff021916908373ffffffffffffffffffffffffffffffffffffffff16021790555060408201518160020155606082015181600301908161141d9190614ea7565b506080820151816004015560a0820151816005015560c08201518160060160006101000a81548160ff0219169083600381111561145d5761145c614135565b5b0217905550905050600b60003373ffffffffffffffffffffffffffffffffffffffff1673ffffffffffffffffffffffffffffffffffffffff1681526020019081526020016000206002549080600181540180825580915050600190039060005260206000200160009091909190915055600c600086815260200190815260200160002060025490806001815401808255809150506001900390600052602060002001600090919091909150555050505050565b336001600381111561152557611524614135565b5b600460008373ffffffffffffffffffffffffffffffffffffffff1673ffffffffffffffffffffffffffffffffffffffff16815260200190815260200160002060070160009054906101000a900460ff16600381111561158757611586614135565b5b146115c7576040517f08c379a00000000000000000000000000000000000000000000000000000000081526004016115be90614a5f565b60405180910390fd5b81600160038111156115dc576115db614135565b5b6007600083815260200190815260200160002060080160009054906101000a900460ff16600381111561161257611611614135565b5b14611652576040517f08c379a000000000000000000000000000000000000000000000000000000000815260040161164990614c03565b60405180910390fd5b6009600084815260200190815260200160002060003373ffffffffffffffffffffffffffffffffffffffff1673ffffffffffffffffffffffffffffffffffffffff16815260200190815260200160002060009054906101000a900460ff16156116ba57600080fd5b6116e460016007600086815260200190815260200160002060060154613f0290919063ffffffff16565b600760008581526020019081526020016000206006018190555060016009600085815260200190815260200160002060003373ffffffffffffffffffffffffffffffffffffffff1673ffffffffffffffffffffffffffffffffffffffff16815260200190815260200160002060006101000a81548160ff021916908315150217905550505050565b60025481565b60008054906101000a900473ffffffffffffffffffffffffffffffffffffffff1673ffffffffffffffffffffffffffffffffffffffff163373ffffffffffffffffffffffffffffffffffffffff1614611800576040517f08c379a00000000000000000000000000000000000000000000000000000000081526004016117f790614b97565b60405180910390fd5b6001601260008373ffffffffffffffffffffffffffffffffffffffff1673ffffffffffffffffffffffffffffffffffffffff16815260200190815260200160002060006101000a81548160ff02191690831515021790555061186e6001600d54613f0290919063ffffffff16565b600d81905550600d54601360003373ffffffffffffffffffffffffffffffffffffffff1673ffffffffffffffffffffffffffffffffffffffff1681526020019081526020016000208190555050565b60006060806060806060600460008873ffffffffffffffffffffffffffffffffffffffff1673ffffffffffffffffffffffffffffffffffffffff16815260200190815260200160002060000154600460008973ffffffffffffffffffffffffffffffffffffffff1673ffffffffffffffffffffffffffffffffffffffff168152602001908152602001600020600201600460008a73ffffffffffffffffffffffffffffffffffffffff1673ffffffffffffffffffffffffffffffffffffffff168152602001908152602001600020600301600460008b73ffffffffffffffffffffffffffffffffffffffff1673ffffffffffffffffffffffffffffffffffffffff168152602001908152602001600020600401600460008c73ffffffffffffffffffffffffffffffffffffffff1673ffffffffffffffffffffffffffffffffffffffff168152602001908152602001600020600501600460008d73ffffffffffffffffffffffffffffffffffffffff1673ffffffffffffffffffffffffffffffffffffffff168152602001908152602001600020600601848054611a6090614b1a565b80601f0160208091040260200160405190810160405280929190818152602001828054611a8c90614b1a565b8015611ad95780601f10611aae57610100808354040283529160200191611ad9565b820191906000526020600020905b815481529060010190602001808311611abc57829003601f168201915b50505050509450838054611aec90614b1a565b80601f0160208091040260200160405190810160405280929190818152602001828054611b1890614b1a565b8015611b655780601f10611b3a57610100808354040283529160200191611b65565b820191906000526020600020905b815481529060010190602001808311611b4857829003601f168201915b50505050509350828054611b7890614b1a565b80601f0160208091040260200160405190810160405280929190818152602001828054611ba490614b1a565b8015611bf15780601f10611bc657610100808354040283529160200191611bf1565b820191906000526020600020905b815481529060010190602001808311611bd457829003601f168201915b50505050509250818054611c0490614b1a565b80601f0160208091040260200160405190810160405280929190818152602001828054611c3090614b1a565b8015611c7d5780601f10611c5257610100808354040283529160200191611c7d565b820191906000526020600020905b815481529060010190602001808311611c6057829003601f168201915b50505050509150808054611c9090614b1a565b80601f0160208091040260200160405190810160405280929190818152602001828054611cbc90614b1a565b8015611d095780601f10611cde57610100808354040283529160200191611d09565b820191906000526020600020905b815481529060010190602001808311611cec57829003601f168201915b5050505050905095509550955095509550955091939550919395565b60603360016003811115611d3c57611d3b614135565b5b600460008373ffffffffffffffffffffffffffffffffffffffff1673ffffffffffffffffffffffffffffffffffffffff16815260200190815260200160002060070160009054906101000a900460ff166003811115611d9e57611d9d614135565b5b14611dde576040517f08c379a0000000000000000000000000000000000000000000000000000000008152600401611dd590614a5f565b60405180910390fd5b600b60003373ffffffffffffffffffffffffffffffffffffffff1673ffffffffffffffffffffffffffffffffffffffff168152602001908152602001600020805480602002602001604051908101604052809291908181526020018280548015611e6757602002820191906000526020600020905b815481526020019060010190808311611e53575b505050505091505090565b6000600682604051611e849190614fb5565b908152602001604051809103902060009054906101000a900460ff16159050919050565b600060149054906101000a900460ff1681565b600060149054906101000a900460ff1615611f0b576040517f08c379a0000000000000000000000000000000000000000000000000000000008152600401611f0290614cdb565b60405180910390fd5b3360016003811115611f2057611f1f614135565b5b600460008373ffffffffffffffffffffffffffffffffffffffff1673ffffffffffffffffffffffffffffffffffffffff16815260200190815260200160002060070160009054906101000a900460ff166003811115611f8257611f81614135565b5b14611fc2576040517f08c379a0000000000000000000000000000000000000000000000000000000008152600401611fb990614a5f565b60405180910390fd5b81600681604051611fd39190614fb5565b908152602001604051809103902060009054906101000a900460ff161561202f576040517f08c379a000000000000000000000000000000000000000000000000000000000815260040161202690615018565b60405180910390fd5b82600460003373ffffffffffffffffffffffffffffffffffffffff1673ffffffffffffffffffffffffffffffffffffffff168152602001908152602001600020600201908161207e9190614ea7565b50505050565b600060149054906101000a900460ff16156120d4576040517f08c379a00000000000000000000000000000000000000000000000000000000081526004016120cb90614cdb565b60405180910390fd5b80600160038111156120e9576120e8614135565b5b600a600083815260200190815260200160002060060160009054906101000a900460ff16600381111561211f5761211e614135565b5b1461215f576040517f08c379a000000000000000000000000000000000000000000000000000000000815260040161215690614acb565b60405180910390fd5b336001600381111561217457612173614135565b5b600460008373ffffffffffffffffffffffffffffffffffffffff1673ffffffffffffffffffffffffffffffffffffffff16815260200190815260200160002060070160009054906101000a900460ff1660038111156121d6576121d5614135565b5b14612216576040517f08c379a000000000000000000000000000000000000000000000000000000000815260040161220d90614a5f565b60405180910390fd5b82600a600082815260200190815260200160002060010160009054906101000a900473ffffffffffffffffffffffffffffffffffffffff1673ffffffffffffffffffffffffffffffffffffffff163373ffffffffffffffffffffffffffffffffffffffff16146122bb576040517f08c379a00000000000000000000000000000000000000000000000000000000081526004016122b290615084565b60405180910390fd5b600a60008581526020019081526020016000206000808201600090556001820160006101000a81549073ffffffffffffffffffffffffffffffffffffffff021916905560028201600090556003820160006123169190613f60565b600482016000905560058201600090556006820160006101000a81549060ff021916905550506003600a600086815260200190815260200160002060060160006101000a81548160ff0219169083600381111561237657612375614135565b5b021790555050505050565b60115481565b60006060806060806060600460003373ffffffffffffffffffffffffffffffffffffffff1673ffffffffffffffffffffffffffffffffffffffff16815260200190815260200160002060000154600460003373ffffffffffffffffffffffffffffffffffffffff1673ffffffffffffffffffffffffffffffffffffffff168152602001908152602001600020600201600460003373ffffffffffffffffffffffffffffffffffffffff1673ffffffffffffffffffffffffffffffffffffffff168152602001908152602001600020600301600460003373ffffffffffffffffffffffffffffffffffffffff1673ffffffffffffffffffffffffffffffffffffffff168152602001908152602001600020600401600460003373ffffffffffffffffffffffffffffffffffffffff1673ffffffffffffffffffffffffffffffffffffffff168152602001908152602001600020600501600460003373ffffffffffffffffffffffffffffffffffffffff1673ffffffffffffffffffffffffffffffffffffffff16815260200190815260200160002060060184805461252a90614b1a565b80601f016020809104026020016040519081016040528092919081815260200182805461255690614b1a565b80156125a35780601f10612578576101008083540402835291602001916125a3565b820191906000526020600020905b81548152906001019060200180831161258657829003601f168201915b505050505094508380546125b690614b1a565b80601f01602080910402602001604051908101604052809291908181526020018280546125e290614b1a565b801561262f5780601f106126045761010080835404028352916020019161262f565b820191906000526020600020905b81548152906001019060200180831161261257829003601f168201915b5050505050935082805461264290614b1a565b80601f016020809104026020016040519081016040528092919081815260200182805461266e90614b1a565b80156126bb5780601f10612690576101008083540402835291602001916126bb565b820191906000526020600020905b81548152906001019060200180831161269e57829003601f168201915b505050505092508180546126ce90614b1a565b80601f01602080910402602001604051908101604052809291908181526020018280546126fa90614b1a565b80156127475780601f1061271c57610100808354040283529160200191612747565b820191906000526020600020905b81548152906001019060200180831161272a57829003601f168201915b5050505050915080805461275a90614b1a565b80601f016020809104026020016040519081016040528092919081815260200182805461278690614b1a565b80156127d35780601f106127a8576101008083540402835291602001916127d3565b820191906000526020600020905b8154815290600101906020018083116127b657829003601f168201915b50505050509050955095509550955095509550909192939495565b60008054906101000a900473ffffffffffffffffffffffffffffffffffffffff1681565b6000600460003373ffffffffffffffffffffffffffffffffffffffff1673ffffffffffffffffffffffffffffffffffffffff16815260200190815260200160002060070160009054906101000a900460ff16905090565b60008054906101000a900473ffffffffffffffffffffffffffffffffffffffff1673ffffffffffffffffffffffffffffffffffffffff163373ffffffffffffffffffffffffffffffffffffffff16146128f7576040517f08c379a00000000000000000000000000000000000000000000000000000000081526004016128ee90614b97565b60405180910390fd5b600060149054906101000a900460ff16612946576040517f08c379a000000000000000000000000000000000000000000000000000000000815260040161293d906150f0565b60405180910390fd5b60008060146101000a81548160ff021916908315150217905550565b60008054906101000a900473ffffffffffffffffffffffffffffffffffffffff1673ffffffffffffffffffffffffffffffffffffffff163373ffffffffffffffffffffffffffffffffffffffff16146129f0576040517f08c379a00000000000000000000000000000000000000000000000000000000081526004016129e790614b97565b60405180910390fd5b806000806101000a81548173ffffffffffffffffffffffffffffffffffffffff021916908373ffffffffffffffffffffffffffffffffffffffff16021790555050565b600060149054906101000a900460ff1615612a83576040517f08c379a0000000000000000000000000000000000000000000000000000000008152600401612a7a90614cdb565b60405180910390fd5b3360006003811115612a9857612a97614135565b5b600460008373ffffffffffffffffffffffffffffffffffffffff1673ffffffffffffffffffffffffffffffffffffffff16815260200190815260200160002060070160009054906101000a900460ff166003811115612afa57612af9614135565b5b14612b3a576040517f08c379a0000000000000000000000000000000000000000000000000000000008152600401612b319061515c565b60405180910390fd5b85600681604051612b4b9190614fb5565b908152602001604051809103902060009054906101000a900460ff1615612ba7576040517f08c379a0000000000000000000000000000000000000000000000000000000008152600401612b9e90615018565b60405180910390fd5b6001600688604051612bb99190614fb5565b908152602001604051809103902060006101000a81548160ff021916908315150217905550612bf46001600354613f0290919063ffffffff16565b600381905550600060035490506040518061010001604052808281526020013373ffffffffffffffffffffffffffffffffffffffff16815260200189815260200188815260200187815260200186815260200185815260200160016003811115612c6157612c60614135565b5b815250600460003373ffffffffffffffffffffffffffffffffffffffff1673ffffffffffffffffffffffffffffffffffffffff1681526020019081526020016000206000820151816000015560208201518160010160006101000a81548173ffffffffffffffffffffffffffffffffffffffff021916908373ffffffffffffffffffffffffffffffffffffffff1602179055506040820151816002019081612d099190614ea7565b506060820151816003019081612d1f9190614ea7565b506080820151816004019081612d359190614ea7565b5060a0820151816005019081612d4b9190614ea7565b5060c0820151816006019081612d619190614ea7565b5060e08201518160070160006101000a81548160ff02191690836003811115612d8d57612d8c614135565b5b021790555090505033600589604051612da69190614fb5565b908152602001604051809103902060006101000a81548173ffffffffffffffffffffffffffffffffffffffff021916908373ffffffffffffffffffffffffffffffffffffffff1602179055507fabc58c36475157c4ac7669f9adfbb6f254d3a3578fb89676f6866ac3b9950eed33600354604051612e2592919061517c565b60405180910390a15050505050505050565b600060149054906101000a900460ff1615612e87576040517f08c379a0000000000000000000000000000000000000000000000000000000008152600401612e7e90614cdb565b60405180910390fd5b3360016003811115612e9c57612e9b614135565b5b600460008373ffffffffffffffffffffffffffffffffffffffff1673ffffffffffffffffffffffffffffffffffffffff16815260200190815260200160002060070160009054906101000a900460ff166003811115612efe57612efd614135565b5b14612f3e576040517f08c379a0000000000000000000000000000000000000000000000000000000008152600401612f3590614a5f565b60405180910390fd5b8260016003811115612f5357612f52614135565b5b600a600083815260200190815260200160002060060160009054906101000a900460ff166003811115612f8957612f88614135565b5b14612fc9576040517f08c379a0000000000000000000000000000000000000000000000000000000008152600401612fc090614acb565b60405180910390fd5b83600a600082815260200190815260200160002060010160009054906101000a900473ffffffffffffffffffffffffffffffffffffffff1673ffffffffffffffffffffffffffffffffffffffff163373ffffffffffffffffffffffffffffffffffffffff161461306e576040517f08c379a000000000000000000000000000000000000000000000000000000000815260040161306590615084565b60405180910390fd5b83600a600087815260200190815260200160002060030190816130919190614ea7565b505050505050565b60015481565b60008054906101000a900473ffffffffffffffffffffffffffffffffffffffff1673ffffffffffffffffffffffffffffffffffffffff163373ffffffffffffffffffffffffffffffffffffffff161461312d576040517f08c379a000000000000000000000000000000000000000000000000000000000815260040161312490614b97565b60405180910390fd5b47811115613170576040517f08c379a000000000000000000000000000000000000000000000000000000000815260040161316790615217565b60405180910390fd5b3373ffffffffffffffffffffffffffffffffffffffff166108fc829081150290604051600060405180830381858888f193505050501580156131b6573d6000803e3d6000fd5b5050565b60035481565b606033600160038111156131d7576131d6614135565b5b600460008373ffffffffffffffffffffffffffffffffffffffff1673ffffffffffffffffffffffffffffffffffffffff16815260200190815260200160002060070160009054906101000a900460ff16600381111561323957613238614135565b5b14613279576040517f08c379a000000000000000000000000000000000000000000000000000000000815260040161327090614a5f565b60405180910390fd5b826001600381111561328e5761328d614135565b5b6007600083815260200190815260200160002060080160009054906101000a900460ff1660038111156132c4576132c3614135565b5b14613304576040517f08c379a00000000000000000000000000000000000000000000000000000000081526004016132fb90614c03565b60405180910390fd5b600c600085815260200190815260200160002080548060200260200160405190810160405280929190818152602001828054801561336157602002820191906000526020600020905b81548152602001906001019080831161334d575b505050505092505050919050565b600060149054906101000a900460ff16156133bf576040517f08c379a00000000000000000000000000000000000000000000000000000000081526004016133b690614cdb565b60405180910390fd5b83600160038111156133d4576133d3614135565b5b6007600083815260200190815260200160002060080160009054906101000a900460ff16600381111561340a57613409614135565b5b1461344a576040517f08c379a000000000000000000000000000000000000000000000000000000000815260040161344190614c03565b60405180910390fd5b336001600381111561345f5761345e614135565b5b600460008373ffffffffffffffffffffffffffffffffffffffff1673ffffffffffffffffffffffffffffffffffffffff16815260200190815260200160002060070160009054906101000a900460ff1660038111156134c1576134c0614135565b5b14613501576040517f08c379a00000000000000000000000000000000000000000000000000000000081526004016134f890614a5f565b60405180910390fd5b856007600082815260200190815260200160002060010160009054906101000a900473ffffffffffffffffffffffffffffffffffffffff1673ffffffffffffffffffffffffffffffffffffffff163373ffffffffffffffffffffffffffffffffffffffff16146135a6576040517f08c379a000000000000000000000000000000000000000000000000000000000815260040161359d90615084565b60405180910390fd5b856007600089815260200190815260200160002060020190816135c99190614ea7565b50846007600089815260200190815260200160002060030190816135ed9190614ea7565b50836007600089815260200190815260200160002060040190816136119190614ea7565b5050505050505050565b60126020528060005260406000206000915054906101000a900460ff1681565b600060149054906101000a900460ff161561368b576040517f08c379a000000000000000000000000000000000000000000000000000000000815260040161368290614cdb565b60405180910390fd5b33600160038111156136a05761369f614135565b5b600460008373ffffffffffffffffffffffffffffffffffffffff1673ffffffffffffffffffffffffffffffffffffffff16815260200190815260200160002060070160009054906101000a900460ff16600381111561370257613701614135565b5b14613742576040517f08c379a000000000000000000000000000000000000000000000000000000000815260040161373990614a5f565b60405180910390fd5b61375760018054613f0290919063ffffffff16565b600181905550600060015490506040518061012001604052808281526020013373ffffffffffffffffffffffffffffffffffffffff1681526020018681526020018581526020018481526020014281526020016000815260200160008152602001600160038111156137cc576137cb614135565b5b815250600760008381526020019081526020016000206000820151816000015560208201518160010160006101000a81548173ffffffffffffffffffffffffffffffffffffffff021916908373ffffffffffffffffffffffffffffffffffffffff16021790555060408201518160020190816138489190614ea7565b50606082015181600301908161385e9190614ea7565b5060808201518160040190816138749190614ea7565b5060a0820151816005015560c0820151816006015560e082015181600701556101008201518160080160006101000a81548160ff021916908360038111156138bf576138be614135565b5b0217905550905050600860003373ffffffffffffffffffffffffffffffffffffffff1673ffffffffffffffffffffffffffffffffffffffff16815260200190815260200160002060015490806001815401808255809150506001900390600052602060002001600090919091909150557f21593a9df09ab143689b32be8383151220aea83c109d2687fdaf0352025b12b633600460003373ffffffffffffffffffffffffffffffffffffffff1673ffffffffffffffffffffffffffffffffffffffff16815260200190815260200160002060000154600154886040516139a89493929190615237565b60405180910390a15050505050565b60105481565b80600160038111156139d2576139d1614135565b5b6007600083815260200190815260200160002060080160009054906101000a900460ff166003811115613a0857613a07614135565b5b14613a48576040517f08c379a0000000000000000000000000000000000000000000000000000000008152600401613a3f90614c03565b60405180910390fd5b3360016003811115613a5d57613a5c614135565b5b600460008373ffffffffffffffffffffffffffffffffffffffff1673ffffffffffffffffffffffffffffffffffffffff16815260200190815260200160002060070160009054906101000a900460ff166003811115613abf57613abe614135565b5b14613aff576040517f08c379a0000000000000000000000000000000000000000000000000000000008152600401613af690614a5f565b60405180910390fd5b600060149054906101000a900460ff1615613b4f576040517f08c379a0000000000000000000000000000000000000000000000000000000008152600401613b4690614cdb565b60405180910390fd5b826007600082815260200190815260200160002060010160009054906101000a900473ffffffffffffffffffffffffffffffffffffffff1673ffffffffffffffffffffffffffffffffffffffff163373ffffffffffffffffffffffffffffffffffffffff1614613bf4576040517f08c379a0000000000000000000000000000000000000000000000000000000008152600401613beb90615084565b60405180910390fd5b7f83eaa369805b076a12075449c0a5991787d784ac3ac93f7f0ee7d626867ba1608460076000878152602001908152602001600020600201604051613c3a929190615307565b60405180910390a1600760008581526020019081526020016000206000808201600090556001820160006101000a81549073ffffffffffffffffffffffffffffffffffffffff0219169055600282016000613c959190613f60565b600382016000613ca59190613f60565b600482016000613cb59190613f60565b6005820160009055600682016000905560078201600090556008820160006101000a81549060ff0219169055505060036007600086815260200190815260200160002060080160006101000a81548160ff02191690836003811115613d1d57613d1c614135565b5b021790555060005b600c600086815260200190815260200160002080549050811015613d8957600c60008681526020019081526020016000208181548110613d6857613d67615337565b5b90600052602060002001600090558080613d8190615395565b915050613d25565b50600c60008581526020019081526020016000206000613da99190613fa0565b50505050565b60603360016003811115613dc657613dc5614135565b5b600460008373ffffffffffffffffffffffffffffffffffffffff1673ffffffffffffffffffffffffffffffffffffffff16815260200190815260200160002060070160009054906101000a900460ff166003811115613e2857613e27614135565b5b14613e68576040517f08c379a0000000000000000000000000000000000000000000000000000000008152600401613e5f90614a5f565b60405180910390fd5b600860003373ffffffffffffffffffffffffffffffffffffffff1673ffffffffffffffffffffffffffffffffffffffff168152602001908152602001600020805480602002602001604051908101604052809291908181526020018280548015613ef157602002820191906000526020600020905b815481526020019060010190808311613edd575b505050505091505090565b600d5481565b6000808284613f1191906153dd565b905083811015613f56576040517f08c379a0000000000000000000000000000000000000000000000000000000008152600401613f4d9061545d565b60405180910390fd5b8091505092915050565b508054613f6c90614b1a565b6000825580601f10613f7e5750613f9d565b601f016020900490600052602060002090810190613f9c9190613fc1565b5b50565b5080546000825590600052602060002090810190613fbe9190613fc1565b50565b5b80821115613fda576000816000905550600101613fc2565b5090565b6000604051905090565b600080fd5b600080fd5b6000819050919050565b61400581613ff2565b811461401057600080fd5b50565b60008135905061402281613ffc565b92915050565b60006020828403121561403e5761403d613fe8565b5b600061404c84828501614013565b91505092915050565b600073ffffffffffffffffffffffffffffffffffffffff82169050919050565b600061408082614055565b9050919050565b61409081614075565b82525050565b61409f81613ff2565b82525050565b600081519050919050565b600082825260208201905092915050565b60005b838110156140df5780820151818401526020810190506140c4565b60008484015250505050565b6000601f19601f8301169050919050565b6000614107826140a5565b61411181856140b0565b93506141218185602086016140c1565b61412a816140eb565b840191505092915050565b7f4e487b7100000000000000000000000000000000000000000000000000000000600052602160045260246000fd5b6004811061417557614174614135565b5b50565b600081905061418682614164565b919050565b600061419682614178565b9050919050565b6141a68161418b565b82525050565b600060c0820190506141c16000830189614087565b6141ce6020830188614096565b81810360408301526141e081876140fc565b90506141ef6060830186614096565b6141fc6080830185614096565b61420960a083018461419d565b979650505050505050565b60006020820190506142296000830184614096565b92915050565b600060c0820190506142446000830189614087565b818103602083015261425681886140fc565b9050818103604083015261426a81876140fc565b9050818103606083015261427e81866140fc565b905061428d6080830185614096565b61429a60a0830184614096565b979650505050505050565b6142ae81614075565b81146142b957600080fd5b50565b6000813590506142cb816142a5565b92915050565b600080604083850312156142e8576142e7613fe8565b5b60006142f6858286016142bc565b925050602061430785828601614013565b9150509250929050565b60006020828403121561432757614326613fe8565b5b6000614335848285016142bc565b91505092915050565b600081519050919050565b600082825260208201905092915050565b6000819050602082019050919050565b61437381613ff2565b82525050565b6000614385838361436a565b60208301905092915050565b6000602082019050919050565b60006143a98261433e565b6143b38185614349565b93506143be8361435a565b8060005b838110156143ef5781516143d68882614379565b97506143e183614391565b9250506001810190506143c2565b5085935050505092915050565b60006020820190508181036000830152614416818461439e565b905092915050565b600080fd5b600080fd5b7f4e487b7100000000000000000000000000000000000000000000000000000000600052604160045260246000fd5b614460826140eb565b810181811067ffffffffffffffff8211171561447f5761447e614428565b5b80604052505050565b6000614492613fde565b905061449e8282614457565b919050565b600067ffffffffffffffff8211156144be576144bd614428565b5b6144c7826140eb565b9050602081019050919050565b82818337600083830152505050565b60006144f66144f1846144a3565b614488565b90508281526020810184848401111561451257614511614423565b5b61451d8482856144d4565b509392505050565b600082601f83011261453a5761453961441e565b5b813561454a8482602086016144e3565b91505092915050565b6000806040838503121561456a57614569613fe8565b5b600061457885828601614013565b925050602083013567ffffffffffffffff81111561459957614598613fed565b5b6145a585828601614525565b9150509250929050565b600060c0820190506145c46000830189614096565b81810360208301526145d681886140fc565b905081810360408301526145ea81876140fc565b905081810360608301526145fe81866140fc565b9050818103608083015261461281856140fc565b905081810360a083015261462681846140fc565b9050979650505050505050565b60006020828403121561464957614648613fe8565b5b600082013567ffffffffffffffff81111561466757614666613fed565b5b61467384828501614525565b91505092915050565b60008115159050919050565b6146918161467c565b82525050565b60006020820190506146ac6000830184614688565b92915050565b60006146bd82614055565b9050919050565b6146cd816146b2565b82525050565b60006020820190506146e860008301846146c4565b92915050565b600481106146ff576146fe614135565b5b50565b6000819050614710826146ee565b919050565b600061472082614702565b9050919050565b61473081614715565b82525050565b600060208201905061474b6000830184614727565b92915050565b61475a816146b2565b811461476557600080fd5b50565b60008135905061477781614751565b92915050565b60006020828403121561479357614792613fe8565b5b60006147a184828501614768565b91505092915050565b600080600080600060a086880312156147c6576147c5613fe8565b5b600086013567ffffffffffffffff8111156147e4576147e3613fed565b5b6147f088828901614525565b955050602086013567ffffffffffffffff81111561481157614810613fed565b5b61481d88828901614525565b945050604086013567ffffffffffffffff81111561483e5761483d613fed565b5b61484a88828901614525565b935050606086013567ffffffffffffffff81111561486b5761486a613fed565b5b61487788828901614525565b925050608086013567ffffffffffffffff81111561489857614897613fed565b5b6148a488828901614525565b9150509295509295909350565b600080600080608085870312156148cb576148ca613fe8565b5b60006148d987828801614013565b945050602085013567ffffffffffffffff8111156148fa576148f9613fed565b5b61490687828801614525565b935050604085013567ffffffffffffffff81111561492757614926613fed565b5b61493387828801614525565b925050606085013567ffffffffffffffff81111561495457614953613fed565b5b61496087828801614525565b91505092959194509250565b60008060006060848603121561498557614984613fe8565b5b600084013567ffffffffffffffff8111156149a3576149a2613fed565b5b6149af86828701614525565b935050602084013567ffffffffffffffff8111156149d0576149cf613fed565b5b6149dc86828701614525565b925050604084013567ffffffffffffffff8111156149fd576149fc613fed565b5b614a0986828701614525565b9150509250925092565b7f4e6f742061205265676973746572656420557365722100000000000000000000600082015250565b6000614a496016836140b0565b9150614a5482614a13565b602082019050919050565b60006020820190508181036000830152614a7881614a3c565b9050919050565b7f4e6f7420612061637469766520636f6d6d656e74000000000000000000000000600082015250565b6000614ab56014836140b0565b9150614ac082614a7f565b602082019050919050565b60006020820190508181036000830152614ae481614aa8565b9050919050565b7f4e487b7100000000000000000000000000000000000000000000000000000000600052602260045260246000fd5b60006002820490506001821680614b3257607f821691505b602082108103614b4557614b44614aeb565b5b50919050565b7f596f7520617265206e6f74206f776e6572210000000000000000000000000000600082015250565b6000614b816012836140b0565b9150614b8c82614b4b565b602082019050919050565b60006020820190508181036000830152614bb081614b74565b9050919050565b7f4e6f742061206163746976652064776565740000000000000000000000000000600082015250565b6000614bed6012836140b0565b9150614bf882614bb7565b602082019050919050565b60006020820190508181036000830152614c1c81614be0565b9050919050565b7f416c72656164792073746f707065640000000000000000000000000000000000600082015250565b6000614c59600f836140b0565b9150614c6482614c23565b602082019050919050565b60006020820190508181036000830152614c8881614c4c565b9050919050565b7f4461707020686173206265656e2073746f707065642100000000000000000000600082015250565b6000614cc56016836140b0565b9150614cd082614c8f565b602082019050919050565b60006020820190508181036000830152614cf481614cb8565b9050919050565b60008190508160005260206000209050919050565b60006020601f8301049050919050565b600082821b905092915050565b600060088302614d5d7fffffffffffffffffffffffffffffffffffffffffffffffffffffffffffffffff82614d20565b614d678683614d20565b95508019841693508086168417925050509392505050565b6000819050919050565b6000614da4614d9f614d9a84613ff2565b614d7f565b613ff2565b9050919050565b6000819050919050565b614dbe83614d89565b614dd2614dca82614dab565b848454614d2d565b825550505050565b600090565b614de7614dda565b614df2818484614db5565b505050565b5b81811015614e1657614e0b600082614ddf565b600181019050614df8565b5050565b601f821115614e5b57614e2c81614cfb565b614e3584614d10565b81016020851015614e44578190505b614e58614e5085614d10565b830182614df7565b50505b505050565b600082821c905092915050565b6000614e7e60001984600802614e60565b1980831691505092915050565b6000614e978383614e6d565b9150826002028217905092915050565b614eb0826140a5565b67ffffffffffffffff811115614ec957614ec8614428565b5b614ed38254614b1a565b614ede828285614e1a565b600060209050601f831160018114614f115760008415614eff578287015190505b614f098582614e8b565b865550614f71565b601f198416614f1f86614cfb565b60005b82811015614f4757848901518255600182019150602085019450602081019050614f22565b86831015614f645784890151614f60601f891682614e6d565b8355505b6001600288020188555050505b505050505050565b600081905092915050565b6000614f8f826140a5565b614f998185614f79565b9350614fa98185602086016140c1565b80840191505092915050565b6000614fc18284614f84565b915081905092915050565b7f557365726e616d6520616c72656164792074616b656e00000000000000000000600082015250565b60006150026016836140b0565b915061500d82614fcc565b602082019050919050565b6000602082019050818103600083015261503181614ff5565b9050919050565b7f596f7520617265206e6f7420417574686f722100000000000000000000000000600082015250565b600061506e6013836140b0565b915061507982615038565b602082019050919050565b6000602082019050818103600083015261509d81615061565b9050919050565b7f416c726561647920737461727465640000000000000000000000000000000000600082015250565b60006150da600f836140b0565b91506150e5826150a4565b602082019050919050565b60006020820190508181036000830152615109816150cd565b9050919050565b7f5573657220616c72656164792072656769737465726564000000000000000000600082015250565b60006151466017836140b0565b915061515182615110565b602082019050919050565b6000602082019050818103600083015261517581615139565b9050919050565b60006040820190506151916000830185614087565b61519e6020830184614096565b9392505050565b7f576974686472617720616d6f756e742067726561746572207468616e2062616c60008201527f616e636500000000000000000000000000000000000000000000000000000000602082015250565b60006152016024836140b0565b915061520c826151a5565b604082019050919050565b60006020820190508181036000830152615230816151f4565b9050919050565b600060808201905061524c6000830187614087565b6152596020830186614096565b6152666040830185614096565b818103606083015261527881846140fc565b905095945050505050565b6000815461529081614b1a565b61529a81866140b0565b945060018216600081146152b557600181146152cb576152fe565b60ff1983168652811515602002860193506152fe565b6152d485614cfb565b60005b838110156152f6578154818901526001820191506020810190506152d7565b808801955050505b50505092915050565b600060408201905061531c6000830185614096565b818103602083015261532e8184615283565b90509392505050565b7f4e487b7100000000000000000000000000000000000000000000000000000000600052603260045260246000fd5b7f4e487b7100000000000000000000000000000000000000000000000000000000600052601160045260246000fd5b60006153a082613ff2565b91507fffffffffffffffffffffffffffffffffffffffffffffffffffffffffffffffff82036153d2576153d1615366565b5b600182019050919050565b60006153e882613ff2565b91506153f383613ff2565b925082820190508082111561540b5761540a615366565b5b92915050565b7f536166654d6174683a206164646974696f6e206f766572666c6f770000000000600082015250565b6000615447601b836140b0565b915061545282615411565b602082019050919050565b600060208201905081810360008301526154768161543a565b905091905056fea2646970667358221220abf7d31bd7fda23378d88c9d1fcc572f150cc836400b40ef8a45795cac42b29564736f6c63430008130033",
  "linkReferences": {},
  "deployedLinkReferences": {}
}